S013000050574D5F445256383832352E73726563FB
S11300000C9434000C943E000C943E000C943E007E
S11300100C943E000C943E000C943E000C943E0064
S11300200C943E000C943E000C943E000C943E0054
S11300300C943E000C943E000C943E000C943E0044
S11300400C943E000C943E000C943E000C943E0034
S11300500C943E000C943E000C943E000C943E0024
S11300600C943E000C943E0011241FBECFEFD8E048
S1130070DEBFCDBF0E9453000C9470000C940000AE
S113008082E8809380008AE1809381008FEC97E07E
S1130090909387008093860087EE93E09093890085
S11300A080938800089583E084B90E94400085B15C
S11300B0816085B92FE784E89EE12150804090401B
S11300C0E1F700C0000085B18E7F85B92FE784E891
S11300D09EE1215080409040E1F700C00000E7CF4E
S10700E0F894FFCFBE
S9030000FC
